:100000000C9435000C945D000C945D000C945D0024
:100010000C945D000C945D000C945D000C945D00EC
:100020000C945D000C945D000C945D000C945D00DC
:100030000C945D000C945D000C945D000C945D00CC
:100040000C945D000C945D000C945D000C945D00BC
:100050000C945D000C945D000C945D000C945D00AC
:100060000C945D000C945D004A0611241FBECFEF76
:10007000D8E0DEBFCDBF11E0A0E0B1E0ECEEFCE0E7
:1000800002C005900D92AA34B107D9F721E0AAE485
:10009000B1E001C01D92AC34B207E1F710E0C5E356
:1000A000D0E004C02197FE010E946E06C433D10740
:1000B000C9F70E9473050C9474060C9400000F930A
:1000C0001F93CF9390E1899F80011124C82FC07F97
:1000D0000E9474018EE40E946C0183EF91E001970D
:1000E000F1F700C000008C2F8C600E946C0183EF40
:1000F00091E00197F1F700C000008C2F88600E940A
:100100006C0183EF91E00197F1F700C00000802FB0
:100110008C600E946C0183EF91E00197F1F700C0C1
:100120000000802F88600E946C0183EF91E00197AE
:10013000F1F700C000000E947C01CF911F910F9148
:1001400008950E9474018EE40E946C0183EF91E097
:100150000197F1F700C000008CE30E946C0183EF6F
:1001600091E00197F1F700C0000088E30E946C0164
:1001700081EE94E00197F1F700C000008CE30E944B
:100180006C0183EF91E00197F1F700C0000088E374
:100190000E946C0181EE94E00197F1F700C000002D
:1001A0008CE30E946C0183EF91E00197F1F700C0AE
:1001B000000088E30E946C0181EE94E00197F1F762
:1001C00000C000008CE20E946C0183EF91E0019777
:1001D000F1F700C0000088E20E946C0183EF91E01B
:1001E0000197F1F700C000000E947C0188E20E94A4
:1001F0005F0081E00E945F0086E00E945F008CE06B
:100200000E945F0008950F931F93CF9390E1899F01
:1002100080011124C82FC07F0E9474018EE40E94C7
:100220006C0183EF91E00197F1F700C000008C2F83
:100230008D600E946C0183EF91E00197F1F700C09F
:1002400000008C2F89600E946C0183EF91E0019780
:10025000F1F700C00000802F8D600E946C0183EFD9
:1002600091E00197F1F700C00000802F89600E94A3
:100270006C0183EF91E00197F1F700C000000E944C
:100280007C01CF911F910F910895CF93DF93EC01E3
:100290008881882321F021960E940301F9CFDF9104
:1002A000CF9108956130710521F06230710531F010
:1002B0000895815080680E945F000895815C806885
:1002C0000E945F0008951092B90088E48093B800FE
:1002D00084E08093BC0008958093BB00ECEBF0E0D9
:1002E00084E880838081089584EA8093BC008091B3
:1002F000BC008823E4F7089584E98093BC00089546
:10030000FC01608355B121E030E0C90102C0880FD3
:10031000991F6A95E2F7852B85B954B1C901008010
:1003200002C0880F991F0A94E2F7852B84B9418394
:1003300055B1C90102C0880F991F4A95E2F7852B74
:1003400085B984B1018002C0220F331F0A94E2F7FD
:10035000282B24B90895FF920F931F93CF93DF9317
:100360008C01F42E95B1C1E0D0E09E01F80100802F
:1003700002C0220F331F0A94E2F7822F809589234F
:1003800085B9862F90E0880F991F8E770E945906B5
:100390008F2D0E94590685B1F801008002C0CC0F54
:1003A000DD1F0A94E2F7C82BC5B9DF91CF911F91E9
:1003B0000F91FF9008950F931F93CF93DF938C01BC
:1003C00095B1C1E0D0E09E01F801008002C0220F8B
:1003D000331F0A94E2F7822F8095892385B9862FEF
:1003E00090E0880F991F8E7780680E94590680E000
:1003F0000E94590695B1F801008002C0CC0FDD1FA4
:100400000A94E2F7C92BC5B9DF91CF911F910F91E3
:1004100008950F931F93CF93DF938C01D62FC42F92
:100420000E94DB01482F4C2B6D2FC8010E94AB01AD
:10043000DF91CF911F910F9108950F931F93CF9349
:10044000DF938C01D62FC42F0E94DB01C0954C2F67
:1004500048236D2FC8010E94AB01DF91CF911F91FE
:100460000F9108954FE061E00E94AB01089567E3AA
:100470000E94DB010895AF92BF92CF92DF92EF927C
:10048000FF920F931F93CF93DF938C015B016A015F
:10049000790144E065E00E941D0240E86AE0C8017D
:1004A0000E940902C0E0D0E0CC15DD0554F4F5014E
:1004B000EC0FFD1F408169E0C8010E94AB0121964D
:1004C000F3CF43E061E0C8010E94AB01CFEFD0E081
:1004D00065E0C8010E94DB01219711F082FFF8CF8F
:1004E00062E2C8010E94DB01F701808361E2C8017A
:1004F0000E94DB01F7018183DF91CF911F910F9162
:10050000FF90EF90DF90CF90BF90AF900895CF9382
:10051000DF93EC0125B181E090E0088002C0880FF4
:10052000991F0A94E2F7822B85B9CE010E9432020C
:100530004DE86AE2CE010E94AB014EE36BE2CE01D0
:100540000E94AB0140E36DE2CE010E94AB0140E0AE
:100550006CE2CE010E94AB0140E465E1CE010E9455
:10056000AB014DE36AE2CE010E94AB0143E064E1DE
:10057000CE010E940902DF91CF9108955F926F92A0
:100580007F928F929F92AF92BF92CF92DF92EF9223
:10059000FF920F931F93CF93DF93EC01762E5A01B6
:1005A00069014CE0641731F05EE0651761F0612C81
:1005B000512C10C00F2EF0E36F2EF02D0F2EF7E709
:1005C0005F2EF02D07C06894662464F80F2EF2E1C8
:1005D0005F2EF02D452D406862E0CE010E94AB01F8
:1005E00040E864E0CE010E941D0240E86AE0CE01CE
:1005F0000E94090240E061E0CE010E94AB01812C23
:10060000912C8C149D0464F4F501E80DF91D4081D2
:1006100069E0CE010E94AB018FEF881A980AF1CFF2
:10062000472D61E0CE010E94AB019CE0791205C02C
:1006300040E86DE0CE010E9409020F2EF9E1AF2ED5
:10064000B12CF02DE1EEF4E03197F1F700C000009D
:1006500064E0CE010E94DB01D82EF1E0AF1AB108B0
:1006600029F080FD03C0862D8D2161F340E86DE007
:10067000CE010E941D02AB2809F45AC066E0CE01EB
:100680000E94DB018D7109F057C05D2050FC03C052
:10069000A12CB12C04C06894AA24A1F8B12C4CE080
:1006A000741228C06AE0CE010E94DB01D82E6CE0F3
:1006B000CE010E94DB01877091F02D2D30E021509A
:1006C0003109220F331F220F331F220F331FF9016D
:1006D000E80FF11DCF01F701918380830BC08D2DB1
:1006E00090E0880F991F880F991F880F991FF701B5
:1006F00091838083D11002C0DD24D394F0E1FD15F5
:1007000018F46894DD24D4F8E12CF12C8D2D90E0C0
:10071000E816F906A4F448018E0C9F1C69E0CE018E
:100720000E94DB01F4018083FFEFEF1AFF0AEECF96
:10073000AA24A394B12C03C0AA24A394B12CC5016C
:10074000DF91CF911F910F91FF90EF90DF90CF90AD
:10075000BF90AF909F908F907F906F905F90089523
:10076000AF92BF92CF92DF92EF92FF920F931F93BF
:10077000CF93DF9300D0CDB7DEB75C016B0147E0CC
:100780006DE00E94AB0186E2F6018083CE01019606
:100790007C01860121E030E0A6016CE0C5010E94E9
:1007A000BE02009731F429813A812031310521F4CC
:1007B00005C081E090E002C081E090E00F900F90D2
:1007C000DF91CF911F910F91FF90EF90DF90CF902D
:1007D000BF90AF900895AF92BF92CF92DF92EF9209
:1007E000FF920F931F93CF93DF9300D0CDB7DEB767
:1007F0005C016B0140E06DE00E94AB0183E9F60112
:10080000808380E28183CE0101967C01860122E013
:1008100030E0A6016CE0C5010E94BE020F900F906F
:10082000DF91CF911F910F91FF90EF90DF90CF90CC
:10083000BF90AF900895CF92DF92EF92FF920F9307
:100840001F93CF93DF93CDB7DEB72A970FB6F894F7
:10085000DEBF0FBECDBF6C018B0140E06DE00E949A
:10086000AB0183E98B8380E78C8380E090E0843068
:1008700091057CF4FC013296D801A80FB91F2C9188
:1008800043E050E04C0F5D1FE40FF51F20830196FD
:10089000EECF9E01275F3F4F46E050E0BE016D5F07
:1008A0007F4FC6010E943B02CE0101967C018E0162
:1008B0000D5F1F4F28E030E0A8016CE0C6010E94E8
:1008C000BE022A960FB6F894DEBF0FBECDBFDF91F1
:1008D000CF911F910F91FF90EF90DF90CF900895EF
:1008E000CF92DF92EF92FF920F931F93CF93DF93FC
:1008F00000D000D000D0CDB7DEB76C0140E06DE095
:100900000E94AB0180E58B831C829E012B5F3F4FD1
:1009100042E050E0BE016D5F7F4FC6010E943B0286
:10092000CE0101967C018E010D5F1F4F24E030E067
:10093000A8016CE0C6010E94BE028C0148E068E09C
:10094000C6010E941D02C80126960FB6F894DEBFAC
:100950000FBECDBFDF91CF911F910F91FF90EF9010
:10096000DF90CF900895019759F46F3F7F4F41F486
:1009700040E050E062E070E08AE491E00E94800193
:10098000089587E087B90E9463010E94A1000E9438
:1009900051060E945F068AE491E00E948702089552
:1009A0000F931F93CF93DF9300D000D0CDB7DEB766
:1009B00020E030E0223031050CF079C0982F9F7094
:1009C000492F50E082958F709C3049F128F49A307D
:1009D00051F09B30B1F05BC09E30E9F170F19F3077
:1009E00009F447C054C0F901EE0FFF1F41E050E089
:1009F0004C0F5D1FE40FF51F41E450E0518340832D
:100A000053C0F901EE0FFF1F61E070E06C0F7D1F16
:100A1000E60FF71F42E450E05183408345C0F901DF
:100A2000EE0FFF1F41E050E04C0F5D1FE40FF51F7C
:100A300043E450E05183408337C0F901EE0FFF1FBC
:100A400061E070E06C0F7D1FE60FF71F44E450E09B
:100A50005183408329C0F901EE0FFF1F41E050E0B0
:100A60004C0F5D1FE40FF51F45E450E051834083B8
:100A70001BC0F901EE0FFF1F61E070E06C0F7D1FDE
:100A8000E60FF71F46E450E0518340830DC0405D00
:100A90005F4FF901EE0FFF1F61E070E06C0F7D1FEB
:100AA000E60FF71F518340832F5F3F4F83CF01E055
:100AB00010E011237CF0F801EE0FFF1F81E090E0C1
:100AC0008C0F9D1FE80FF91F80810E9403010150C8
:100AD0001109EFCF0F900F900F900F90DF91CF91F2
:100AE0001F910F910895CF93DF93CDB7DEB7649731
:100AF0000FB6F894DEBF0FBECDBF0E94C10486E4DE
:100B0000898B89EE8A8B8CEE8B8B8DEA8C8B61E0E6
:100B100070E081E090E00E94520180E091E00E944C
:100B200045012FEB47E289E0215040408040E1F74A
:100B300000C0000081E00E945F008AE491E00E9412
:100B40003702813929F48AE091E00E9445010BC007
:100B5000823929F486E191E00E94450104C082E2D5
:100B600091E00E94450100E010E062E070E081E069
:100B700090E00E9452010F5F1F4F0130110521F4D8
:100B800081E391E00E944501BE016F5F7F4F8AE4DF
:100B900091E00E94B0039C0188B194E0982798B935
:100BA0009FE946E881E0915040408040E1F700C075
:100BB0000000232BD1F6BE016F5F7F4F8AE491E0E6
:100BC0000E94EB03892B89F662E070E081E090E0FF
:100BD0000E94520182E491E00E94450100E010E091
:100BE0000430110564F4E1E0F0E0EC0FFD1FE00FCC
:100BF000F11F80810E94D0040F5F1F4FF1CF80E072
:100C000090E040E050E084309105A4F4E1E0F0E0B1
:100C1000EC0FFD1FE80FF91F3081E1E1F0E0EC0F70
:100C2000FD1FE80FF91F2081321302C04F5F5F4F95
:100C30000196E9CF4430510581F488B1826088B9CA
:100C40009FE322E44FE0915020404040E1F700C094
:100C5000000088B18D7F88B90FC088B1816088B9E4
:100C60008FE392E42FE0815090402040E1F700C0F4
:100C7000000088B18E7F88B9BE016F5F7F4F8AE424
:100C800091E00E941B048AE491E00E94700400E05D
:100C900010E06BCF6FEF7FEF81E090E00E94B30434
:100CA00008958CE284B981E58CBD85B1846085B9F5
:100CB00008958EBD0DB407FEFDCF8EB50895E0EC0E
:100CC000F0E080818260808388E08093C10086E0CC
:100CD0008093C20087E68093C4000895EE0FFF1F43
:0C0CE0000590F491E02D0994F894FFCFEA
:100CEC006C65742073746172740076657273696FCD
:100CFC006E20312E300076657273696F6E20322E45
:100D0C0030006E6F207265636569766520636D6473
:100D1C0000202020202020202020202020202020E7
:0A0D2C0020004E5549443A20000013
:00000001FF
